{
  "_format": "hh-sol-artifact-1",
  "contractName": "SwapMultipleTokens",
  "sourceName": "contracts/SwapMultipleTokens.sol",
  "abi": [
    {
      "inputs": [
        {
          "internalType": "contract ISwapRouter",
          "name": "_swapRouter",
          "type": "address"
        },
        {
          "internalType": "address",
          "name": "_wMaticAddress",
          "type": "address"
        },
        {
          "internalType": "address",
          "name": "_wEthAddress",
          "type": "address"
        },
        {
          "internalType": "address",
          "name": "_usdcAddress",
          "type": "address"
        }
      ],
      "stateMutability": "nonpayable",
      "type": "constructor"
    },
    {
      "anonymous": false,
      "inputs": [
        {
          "indexed": false,
          "internalType": "string",
          "name": "message",
          "type": "string"
        },
        {
          "indexed": false,
          "internalType": "uint256",
          "name": "value",
          "type": "uint256"
        }
      ],
      "name": "Debug",
      "type": "event"
    },
    {
      "anonymous": false,
      "inputs": [
        {
          "indexed": false,
          "internalType": "uint256",
          "name": "amountMaticIn",
          "type": "uint256"
        },
        {
          "indexed": false,
          "internalType": "uint256",
          "name": "amountWethIn",
          "type": "uint256"
        },
        {
          "indexed": false,
          "internalType": "uint256",
          "name": "amountOutMin",
          "type": "uint256"
        },
        {
          "indexed": false,
          "internalType": "address",
          "name": "recipient",
          "type": "address"
        },
        {
          "indexed": false,
          "internalType": "uint256",
          "name": "deadline",
          "type": "uint256"
        }
      ],
      "name": "SwapInitiated",
      "type": "event"
    },
    {
      "anonymous": false,
      "inputs": [
        {
          "indexed": false,
          "internalType": "uint256",
          "name": "amountMaticIn",
          "type": "uint256"
        },
        {
          "indexed": false,
          "internalType": "uint256",
          "name": "usdcOutMatic",
          "type": "uint256"
        }
      ],
      "name": "SwapMaticForUsdc",
      "type": "event"
    },
    {
      "anonymous": false,
      "inputs": [
        {
          "indexed": false,
          "internalType": "uint256",
          "name": "amountWethIn",
          "type": "uint256"
        },
        {
          "indexed": false,
          "internalType": "uint256",
          "name": "usdcOutWeth",
          "type": "uint256"
        }
      ],
      "name": "SwapWethForUsdc",
      "type": "event"
    },
    {
      "inputs": [],
      "name": "USDC_ADDRESS",
      "outputs": [
        {
          "internalType": "address",
          "name": "",
          "type": "address"
        }
      ],
      "stateMutability": "view",
      "type": "function"
    },
    {
      "inputs": [],
      "name": "WETH_ADDRESS",
      "outputs": [
        {
          "internalType": "address",
          "name": "",
          "type": "address"
        }
      ],
      "stateMutability": "view",
      "type": "function"
    },
    {
      "inputs": [],
      "name": "WMATIC_ADDRESS",
      "outputs": [
        {
          "internalType": "address",
          "name": "",
          "type": "address"
        }
      ],
      "stateMutability": "view",
      "type": "function"
    },
    {
      "inputs": [
        {
          "internalType": "uint256",
          "name": "amountMaticIn",
          "type": "uint256"
        },
        {
          "internalType": "uint256",
          "name": "amountWethIn",
          "type": "uint256"
        },
        {
          "internalType": "uint256",
          "name": "amountOutMin",
          "type": "uint256"
        },
        {
          "internalType": "address",
          "name": "recipient",
          "type": "address"
        },
        {
          "internalType": "uint256",
          "name": "deadline",
          "type": "uint256"
        }
      ],
      "name": "swapMaticAndWethForUsdc",
      "outputs": [],
      "stateMutability": "payable",
      "type": "function"
    },
    {
      "inputs": [],
      "name": "swapRouter",
      "outputs": [
        {
          "internalType": "contract ISwapRouter",
          "name": "",
          "type": "address"
        }
      ],
      "stateMutability": "view",
      "type": "function"
    }
  ],
  "bytecode": "0x6101006040523480156200001257600080fd5b50604051620015793803806200157983398181016040528101906200003891906200014c565b8373ffffffffffffffffffffffffffffffffffffffff1660808173ffffffffffffffffffffffffffffffffffffffff1660601b815250508273ffffffffffffffffffffffffffffffffffffffff1660a08173ffffffffffffffffffffffffffffffffffffffff1660601b815250508173ffffffffffffffffffffffffffffffffffffffff1660c08173ffffffffffffffffffffffffffffffffffffffff1660601b815250508073ffffffffffffffffffffffffffffffffffffffff1660e08173ffffffffffffffffffffffffffffffffffffffff1660601b815250505050505062000234565b6000815190506200012f8162000200565b92915050565b60008151905062000146816200021a565b92915050565b600080600080608085870312156200016357600080fd5b6000620001738782880162000135565b945050602062000186878288016200011e565b935050604062000199878288016200011e565b9250506060620001ac878288016200011e565b91505092959194509250565b6000620001c582620001e0565b9050919050565b6000620001d982620001b8565b9050919050565b600073ffffffffffffffffffffffffffffffffffffffff82169050919050565b6200020b81620001b8565b81146200021757600080fd5b50565b6200022581620001cc565b81146200023157600080fd5b50565b60805160601c60a05160601c60c05160601c60e05160601c6112a4620002d560003960008181610398015281816107aa015281816109b20152610a680152600081816101190152818161052f0152818161061d015261076e0152600081816101c8015281816102490152818161035c0152610ab00152600081816102850152818161042f01528181610659015281816108410152610a8c01526112a46000f3fe60806040526004361061004a5760003560e01c8063040141e51461004f5780630b3a75471461007a578063bb09d9b714610096578063c31c9c07146100c1578063e95d8328146100ec575b600080fd5b34801561005b57600080fd5b50610064610117565b6040516100719190610ee0565b60405180910390f35b610094600480360381019061008f9190610b78565b61013b565b005b3480156100a257600080fd5b506100ab610a66565b6040516100b89190610ee0565b60405180910390f35b3480156100cd57600080fd5b506100d6610a8a565b6040516100e39190610f5b565b60405180910390f35b3480156100f857600080fd5b50610101610aae565b60405161010e9190610ee0565b60405180910390f35b7f000000000000000000000000000000000000000000000000000000000000000081565b84341461017d576040517f08c379a000000000000000000000000000000000000000000000000000000000815260040161017490610ff2565b60405180910390fd5b7f7f2ba01f3ccdbfec3cb6921bde65c6b0b12aba00e25f31e4f24882b6315ecc0485858585856040516101b49594939291906110c5565b60405180910390a1600080861115610524577f000000000000000000000000000000000000000000000000000000000000000073ffffffffffffffffffffffffffffffffffffffff1663d0e30db0876040518263ffffffff1660e01b81526004016000604051808303818588803b15801561022e57600080fd5b505af1158015610242573d6000803e3d6000fd5b50505050507f000000000000000000000000000000000000000000000000000000000000000073ffffffffffffffffffffffffffffffffffffffff1663095ea7b37f0000000000000000000000000000000000000000000000000000000000000000886040518363ffffffff1660e01b81526004016102c2929190610f32565b602060405180830381600087803b1580156102dc57600080fd5b505af11580156102f0573d6000803e3d6000fd5b505050506040513d601f19601f820116820180604052508101906103149190610b26565b507f3c5ad147104e56be34a9176a6692f7df8d2f4b29a5af06bc6b98970d329d6577866040516103449190611052565b60405180910390a160006040518061010001604052807f000000000000000000000000000000000000000000000000000000000000000073ffffffffffffffffffffffffffffffffffffffff1681526020017f000000000000000000000000000000000000000000000000000000000000000073ffffffffffffffffffffffffffffffffffffffff168152602001610bb862ffffff1681526020013073ffffffffffffffffffffffffffffffffffffffff16815260200184815260200188815260200160008152602001600073ffffffffffffffffffffffffffffffffffffffff16815250905060007f000000000000000000000000000000000000000000000000000000000000000073ffffffffffffffffffffffffffffffffffffffff1663414bf389836040518263ffffffff1660e01b81526004016104869190611080565b602060405180830381600087803b1580156104a057600080fd5b505af11580156104b4573d6000803e3d6000fd5b505050506040513d601f19601f820116820180604052508101906104d89190610b4f565b90507f97127c64527c2043968a6bb212c2d0ca447adc2af652c017e79a11cdb25f33bc888260405161050b92919061109c565b60405180910390a1808361051f9190611129565b925050505b6000851115610936577f000000000000000000000000000000000000000000000000000000000000000073ffffffffffffffffffffffffffffffffffffffff166323b872dd3330886040518463ffffffff1660e01b815260040161058a93929190610efb565b602060405180830381600087803b1580156105a457600080fd5b505af11580156105b8573d6000803e3d6000fd5b505050506040513d601f19601f820116820180604052508101906105dc9190610b26565b61061b576040517f08c379a000000000000000000000000000000000000000000000000000000000815260040161061290611012565b60405180910390fd5b7f000000000000000000000000000000000000000000000000000000000000000073ffffffffffffffffffffffffffffffffffffffff1663095ea7b37f0000000000000000000000000000000000000000000000000000000000000000876040518363ffffffff1660e01b8152600401610696929190610f32565b602060405180830381600087803b1580156106b057600080fd5b505af11580156106c4573d6000803e3d6000fd5b505050506040513d601f19601f820116820180604052508101906106e89190610b26565b610727576040517f08c379a000000000000000000000000000000000000000000000000000000000815260040161071e90611032565b60405180910390fd5b7f3c5ad147104e56be34a9176a6692f7df8d2f4b29a5af06bc6b98970d329d6577856040516107569190610fa4565b60405180910390a160006040518061010001604052807f000000000000000000000000000000000000000000000000000000000000000073ffffffffffffffffffffffffffffffffffffffff1681526020017f000000000000000000000000000000000000000000000000000000000000000073ffffffffffffffffffffffffffffffffffffffff168152602001610bb862ffffff1681526020013073ffffffffffffffffffffffffffffffffffffffff16815260200184815260200187815260200160008152602001600073ffffffffffffffffffffffffffffffffffffffff16815250905060007f000000000000000000000000000000000000000000000000000000000000000073ffffffffffffffffffffffffffffffffffffffff1663414bf389836040518263ffffffff1660e01b81526004016108989190611080565b602060405180830381600087803b1580156108b257600080fd5b505af11580156108c6573d6000803e3d6000fd5b505050506040513d601f19601f820116820180604052508101906108ea9190610b4f565b90507fb804c087f11208acf45ff4ecdfa2a892f2a1a77af29b96aaaa7f4fce9e7ce04d878260405161091d92919061109c565b60405180910390a180836109319190611129565b925050505b83811015610979576040517f08c379a000000000000000000000000000000000000000000000000000000000815260040161097090610fd2565b60405180910390fd5b7f3c5ad147104e56be34a9176a6692f7df8d2f4b29a5af06bc6b98970d329d6577816040516109a89190610f76565b60405180910390a17f000000000000000000000000000000000000000000000000000000000000000073ffffffffffffffffffffffffffffffffffffffff1663a9059cbb84836040518363ffffffff1660e01b8152600401610a0b929190610f32565b602060405180830381600087803b158015610a2557600080fd5b505af1158015610a39573d6000803e3d6000fd5b505050506040513d601f19601f82011682018060405250810190610a5d9190610b26565b50505050505050565b7f000000000000000000000000000000000000000000000000000000000000000081565b7f000000000000000000000000000000000000000000000000000000000000000081565b7f000000000000000000000000000000000000000000000000000000000000000081565b600081359050610ae181611229565b92915050565b600081519050610af681611240565b92915050565b600081359050610b0b81611257565b92915050565b600081519050610b2081611257565b92915050565b600060208284031215610b3857600080fd5b6000610b4684828501610ae7565b91505092915050565b600060208284031215610b6157600080fd5b6000610b6f84828501610b11565b91505092915050565b600080600080600060a08688031215610b9057600080fd5b6000610b9e88828901610afc565b9550506020610baf88828901610afc565b9450506040610bc088828901610afc565b9350506060610bd188828901610ad2565b9250506080610be288828901610afc565b9150509295509295909350565b610bf88161117f565b82525050565b610c078161117f565b82525050565b610c16816111d6565b82525050565b6000610c29600e83611118565b91507f546f74616c2055534443206f75740000000000000000000000000000000000006000830152602082019050919050565b6000610c69601d83611118565b91507f57455448207472616e7366657272656420616e6420617070726f7665640000006000830152602082019050919050565b6000610ca9601a83611118565b91507f496e73756666696369656e7420555344432072656365697665640000000000006000830152602082019050919050565b6000610ce9601b83611118565b91507f496e636f7272656374204d4154494320616d6f756e742073656e7400000000006000830152602082019050919050565b6000610d29601483611118565b91507f57455448207472616e73666572206661696c65640000000000000000000000006000830152602082019050919050565b6000610d69601383611118565b91507f5745544820617070726f7665206661696c6564000000000000000000000000006000830152602082019050919050565b6000610da9602683611118565b91507f4d41544943206465706f736974656420616e6420617070726f7665642061732060008301527f574d4154494300000000000000000000000000000000000000000000000000006020830152604082019050919050565b61010082016000820151610e196000850182610bef565b506020820151610e2c6020850182610bef565b506040820151610e3f6040850182610eb3565b506060820151610e526060850182610bef565b506080820151610e656080850182610ec2565b5060a0820151610e7860a0850182610ec2565b5060c0820151610e8b60c0850182610ec2565b5060e0820151610e9e60e0850182610ea4565b50505050565b610ead8161119d565b82525050565b610ebc816111bd565b82525050565b610ecb816111cc565b82525050565b610eda816111cc565b82525050565b6000602082019050610ef56000830184610bfe565b92915050565b6000606082019050610f106000830186610bfe565b610f1d6020830185610bfe565b610f2a6040830184610ed1565b949350505050565b6000604082019050610f476000830185610bfe565b610f546020830184610ed1565b9392505050565b6000602082019050610f706000830184610c0d565b92915050565b60006040820190508181036000830152610f8f81610c1c565b9050610f9e6020830184610ed1565b92915050565b60006040820190508181036000830152610fbd81610c5c565b9050610fcc6020830184610ed1565b92915050565b60006020820190508181036000830152610feb81610c9c565b9050919050565b6000602082019050818103600083015261100b81610cdc565b9050919050565b6000602082019050818103600083015261102b81610d1c565b9050919050565b6000602082019050818103600083015261104b81610d5c565b9050919050565b6000604082019050818103600083015261106b81610d9c565b905061107a6020830184610ed1565b92915050565b6000610100820190506110966000830184610e02565b92915050565b60006040820190506110b16000830185610ed1565b6110be6020830184610ed1565b9392505050565b600060a0820190506110da6000830188610ed1565b6110e76020830187610ed1565b6110f46040830186610ed1565b6111016060830185610bfe565b61110e6080830184610ed1565b9695505050505050565b600082825260208201905092915050565b6000611134826111cc565b915061113f836111cc565b9250827fffffffffffffffffffffffffffffffffffffffffffffffffffffffffffffffff03821115611174576111736111fa565b5b828201905092915050565b600061118a8261119d565b9050919050565b60008115159050919050565b600073ffffffffffffffffffffffffffffffffffffffff82169050919050565b600062ffffff82169050919050565b6000819050919050565b60006111e1826111e8565b9050919050565b60006111f38261119d565b9050919050565b7f4e487b7100000000000000000000000000000000000000000000000000000000600052601160045260246000fd5b6112328161117f565b811461123d57600080fd5b50565b61124981611191565b811461125457600080fd5b50565b611260816111cc565b811461126b57600080fd5b5056fea264697066735822122011b11fb34176e4d875e5058697a9c637865eaa8e9e6c72019d15de874b847de564736f6c63430008000033",
  "linkReferences": {},
  "deployedLinkReferences": {}
}