{
  "_format": "hh-sol-artifact-1",
  "contractName": "SwapMultipleTokens",
  "sourceName": "contracts/SwapMultipleTokens.sol",
  "abi": [
    {
      "inputs": [
        {
          "internalType": "contract ISwapRouter",
          "name": "_swapRouter",
          "type": "address"
        },
        {
          "internalType": "address",
          "name": "_wethAddress",
          "type": "address"
        },
        {
          "internalType": "address",
          "name": "_usdcAddress",
          "type": "address"
        }
      ],
      "stateMutability": "nonpayable",
      "type": "constructor"
    },
    {
      "anonymous": false,
      "inputs": [
        {
          "indexed": false,
          "internalType": "uint256",
          "name": "amountMaticIn",
          "type": "uint256"
        },
        {
          "indexed": false,
          "internalType": "uint256",
          "name": "amountWethIn",
          "type": "uint256"
        },
        {
          "indexed": false,
          "internalType": "uint256",
          "name": "amountOutMin",
          "type": "uint256"
        },
        {
          "indexed": false,
          "internalType": "address",
          "name": "recipient",
          "type": "address"
        },
        {
          "indexed": false,
          "internalType": "uint256",
          "name": "deadline",
          "type": "uint256"
        }
      ],
      "name": "SwapInitiated",
      "type": "event"
    },
    {
      "anonymous": false,
      "inputs": [
        {
          "indexed": false,
          "internalType": "uint256",
          "name": "amountMaticIn",
          "type": "uint256"
        },
        {
          "indexed": false,
          "internalType": "uint256",
          "name": "usdcOutMatic",
          "type": "uint256"
        }
      ],
      "name": "SwapMaticForUsdc",
      "type": "event"
    },
    {
      "anonymous": false,
      "inputs": [
        {
          "indexed": false,
          "internalType": "uint256",
          "name": "amountWethIn",
          "type": "uint256"
        },
        {
          "indexed": false,
          "internalType": "uint256",
          "name": "usdcOutWeth",
          "type": "uint256"
        }
      ],
      "name": "SwapWethForUsdc",
      "type": "event"
    },
    {
      "inputs": [],
      "name": "USDC_ADDRESS",
      "outputs": [
        {
          "internalType": "address",
          "name": "",
          "type": "address"
        }
      ],
      "stateMutability": "view",
      "type": "function"
    },
    {
      "inputs": [],
      "name": "WETH_ADDRESS",
      "outputs": [
        {
          "internalType": "address",
          "name": "",
          "type": "address"
        }
      ],
      "stateMutability": "view",
      "type": "function"
    },
    {
      "inputs": [
        {
          "internalType": "uint256",
          "name": "amountMaticIn",
          "type": "uint256"
        },
        {
          "internalType": "uint256",
          "name": "amountWethIn",
          "type": "uint256"
        },
        {
          "internalType": "uint256",
          "name": "amountOutMin",
          "type": "uint256"
        },
        {
          "internalType": "address",
          "name": "recipient",
          "type": "address"
        },
        {
          "internalType": "uint256",
          "name": "deadline",
          "type": "uint256"
        }
      ],
      "name": "swapMaticAndWethForUsdc",
      "outputs": [],
      "stateMutability": "payable",
      "type": "function"
    },
    {
      "inputs": [],
      "name": "swapRouter",
      "outputs": [
        {
          "internalType": "contract ISwapRouter",
          "name": "",
          "type": "address"
        }
      ],
      "stateMutability": "view",
      "type": "function"
    }
  ],
  "bytecode": "0x60e06040523480156200001157600080fd5b50604051620012ad380380620012ad833981810160405281019062000037919062000113565b8273ffffffffffffffffffffffffffffffffffffffff1660808173ffffffffffffffffffffffffffffffffffffffff1660601b815250508173ffffffffffffffffffffffffffffffffffffffff1660a08173ffffffffffffffffffffffffffffffffffffffff1660601b815250508073ffffffffffffffffffffffffffffffffffffffff1660c08173ffffffffffffffffffffffffffffffffffffffff1660601b81525050505050620001e5565b600081519050620000f681620001b1565b92915050565b6000815190506200010d81620001cb565b92915050565b6000806000606084860312156200012957600080fd5b60006200013986828701620000fc565b93505060206200014c86828701620000e5565b92505060406200015f86828701620000e5565b9150509250925092565b6000620001768262000191565b9050919050565b60006200018a8262000169565b9050919050565b600073ffffffffffffffffffffffffffffffffffffffff82169050919050565b620001bc8162000169565b8114620001c857600080fd5b50565b620001d6816200017d565b8114620001e257600080fd5b50565b60805160601c60a05160601c60c05160601c611035620002786000396000818161032b01528181610706015281816108d7015261098d01526000818160e30152818161019201528181610213015281816102ef015281816104c2015281816105b001526106ca01526000818161024f015281816103c2015281816105ec0152818161079d01526109b101526110356000f3fe60806040526004361061003f5760003560e01c8063040141e5146100445780630b3a75471461006f578063bb09d9b71461008b578063c31c9c07146100b6575b600080fd5b34801561005057600080fd5b506100596100e1565b6040516100669190610cfb565b60405180910390f35b61008960048036038101906100849190610a79565b610105565b005b34801561009757600080fd5b506100a061098b565b6040516100ad9190610cfb565b60405180910390f35b3480156100c257600080fd5b506100cb6109af565b6040516100d89190610d76565b60405180910390f35b7f000000000000000000000000000000000000000000000000000000000000000081565b843414610147576040517f08c379a000000000000000000000000000000000000000000000000000000000815260040161013e90610db1565b60405180910390fd5b7f7f2ba01f3ccdbfec3cb6921bde65c6b0b12aba00e25f31e4f24882b6315ecc04858585858560405161017e959493929190610e56565b60405180910390a16000808611156104b7577f000000000000000000000000000000000000000000000000000000000000000073ffffffffffffffffffffffffffffffffffffffff1663d0e30db0876040518263ffffffff1660e01b81526004016000604051808303818588803b1580156101f857600080fd5b505af115801561020c573d6000803e3d6000fd5b50505050507f000000000000000000000000000000000000000000000000000000000000000073ffffffffffffffffffffffffffffffffffffffff1663095ea7b37f0000000000000000000000000000000000000000000000000000000000000000886040518363ffffffff1660e01b815260040161028c929190610d4d565b602060405180830381600087803b1580156102a657600080fd5b505af11580156102ba573d6000803e3d6000fd5b505050506040513d601f19601f820116820180604052508101906102de9190610a27565b5060006040518061010001604052807f000000000000000000000000000000000000000000000000000000000000000073ffffffffffffffffffffffffffffffffffffffff1681526020017f000000000000000000000000000000000000000000000000000000000000000073ffffffffffffffffffffffffffffffffffffffff168152602001610bb862ffffff1681526020013073ffffffffffffffffffffffffffffffffffffffff16815260200184815260200188815260200160008152602001600073ffffffffffffffffffffffffffffffffffffffff16815250905060007f000000000000000000000000000000000000000000000000000000000000000073ffffffffffffffffffffffffffffffffffffffff1663414bf389836040518263ffffffff1660e01b81526004016104199190610e11565b602060405180830381600087803b15801561043357600080fd5b505af1158015610447573d6000803e3d6000fd5b505050506040513d601f19601f8201168201806040525081019061046b9190610a50565b90507f97127c64527c2043968a6bb212c2d0ca447adc2af652c017e79a11cdb25f33bc888260405161049e929190610e2d565b60405180910390a180836104b29190610eba565b925050505b6000851115610892577f000000000000000000000000000000000000000000000000000000000000000073ffffffffffffffffffffffffffffffffffffffff166323b872dd3330886040518463ffffffff1660e01b815260040161051d93929190610d16565b602060405180830381600087803b15801561053757600080fd5b505af115801561054b573d6000803e3d6000fd5b505050506040513d601f19601f8201168201806040525081019061056f9190610a27565b6105ae576040517f08c379a00000000000000000000000000000000000000000000000000000000081526004016105a590610dd1565b60405180910390fd5b7f000000000000000000000000000000000000000000000000000000000000000073ffffffffffffffffffffffffffffffffffffffff1663095ea7b37f0000000000000000000000000000000000000000000000000000000000000000876040518363ffffffff1660e01b8152600401610629929190610d4d565b602060405180830381600087803b15801561064357600080fd5b505af1158015610657573d6000803e3d6000fd5b505050506040513d601f19601f8201168201806040525081019061067b9190610a27565b6106ba576040517f08c379a00000000000000000000000000000000000000000000000000000000081526004016106b190610df1565b60405180910390fd5b60006040518061010001604052807f000000000000000000000000000000000000000000000000000000000000000073ffffffffffffffffffffffffffffffffffffffff1681526020017f000000000000000000000000000000000000000000000000000000000000000073ffffffffffffffffffffffffffffffffffffffff168152602001610bb862ffffff1681526020013073ffffffffffffffffffffffffffffffffffffffff16815260200184815260200187815260200160008152602001600073ffffffffffffffffffffffffffffffffffffffff16815250905060007f000000000000000000000000000000000000000000000000000000000000000073ffffffffffffffffffffffffffffffffffffffff1663414bf389836040518263ffffffff1660e01b81526004016107f49190610e11565b602060405180830381600087803b15801561080e57600080fd5b505af1158015610822573d6000803e3d6000fd5b505050506040513d601f19601f820116820180604052508101906108469190610a50565b90507fb804c087f11208acf45ff4ecdfa2a892f2a1a77af29b96aaaa7f4fce9e7ce04d8782604051610879929190610e2d565b60405180910390a1808361088d9190610eba565b925050505b838110156108d5576040517f08c379a00000000000000000000000000000000000000000000000000000000081526004016108cc90610d91565b60405180910390fd5b7f000000000000000000000000000000000000000000000000000000000000000073ffffffffffffffffffffffffffffffffffffffff1663a9059cbb84836040518363ffffffff1660e01b8152600401610930929190610d4d565b602060405180830381600087803b15801561094a57600080fd5b505af115801561095e573d6000803e3d6000fd5b505050506040513d601f19601f820116820180604052508101906109829190610a27565b50505050505050565b7f000000000000000000000000000000000000000000000000000000000000000081565b7f000000000000000000000000000000000000000000000000000000000000000081565b6000813590506109e281610fba565b92915050565b6000815190506109f781610fd1565b92915050565b600081359050610a0c81610fe8565b92915050565b600081519050610a2181610fe8565b92915050565b600060208284031215610a3957600080fd5b6000610a47848285016109e8565b91505092915050565b600060208284031215610a6257600080fd5b6000610a7084828501610a12565b91505092915050565b600080600080600060a08688031215610a9157600080fd5b6000610a9f888289016109fd565b9550506020610ab0888289016109fd565b9450506040610ac1888289016109fd565b9350506060610ad2888289016109d3565b9250506080610ae3888289016109fd565b9150509295509295909350565b610af981610f10565b82525050565b610b0881610f10565b82525050565b610b1781610f67565b82525050565b6000610b2a601a83610ea9565b91507f496e73756666696369656e7420555344432072656365697665640000000000006000830152602082019050919050565b6000610b6a601b83610ea9565b91507f496e636f7272656374204d4154494320616d6f756e742073656e7400000000006000830152602082019050919050565b6000610baa601483610ea9565b91507f57455448207472616e73666572206661696c65640000000000000000000000006000830152602082019050919050565b6000610bea601383610ea9565b91507f5745544820617070726f7665206661696c6564000000000000000000000000006000830152602082019050919050565b61010082016000820151610c346000850182610af0565b506020820151610c476020850182610af0565b506040820151610c5a6040850182610cce565b506060820151610c6d6060850182610af0565b506080820151610c806080850182610cdd565b5060a0820151610c9360a0850182610cdd565b5060c0820151610ca660c0850182610cdd565b5060e0820151610cb960e0850182610cbf565b50505050565b610cc881610f2e565b82525050565b610cd781610f4e565b82525050565b610ce681610f5d565b82525050565b610cf581610f5d565b82525050565b6000602082019050610d106000830184610aff565b92915050565b6000606082019050610d2b6000830186610aff565b610d386020830185610aff565b610d456040830184610cec565b949350505050565b6000604082019050610d626000830185610aff565b610d6f6020830184610cec565b9392505050565b6000602082019050610d8b6000830184610b0e565b92915050565b60006020820190508181036000830152610daa81610b1d565b9050919050565b60006020820190508181036000830152610dca81610b5d565b9050919050565b60006020820190508181036000830152610dea81610b9d565b9050919050565b60006020820190508181036000830152610e0a81610bdd565b9050919050565b600061010082019050610e276000830184610c1d565b92915050565b6000604082019050610e426000830185610cec565b610e4f6020830184610cec565b9392505050565b600060a082019050610e6b6000830188610cec565b610e786020830187610cec565b610e856040830186610cec565b610e926060830185610aff565b610e9f6080830184610cec565b9695505050505050565b600082825260208201905092915050565b6000610ec582610f5d565b9150610ed083610f5d565b9250827fffffffffffffffffffffffffffffffffffffffffffffffffffffffffffffffff03821115610f0557610f04610f8b565b5b828201905092915050565b6000610f1b82610f2e565b9050919050565b60008115159050919050565b600073ffffffffffffffffffffffffffffffffffffffff82169050919050565b600062ffffff82169050919050565b6000819050919050565b6000610f7282610f79565b9050919050565b6000610f8482610f2e565b9050919050565b7f4e487b7100000000000000000000000000000000000000000000000000000000600052601160045260246000fd5b610fc381610f10565b8114610fce57600080fd5b50565b610fda81610f22565b8114610fe557600080fd5b50565b610ff181610f5d565b8114610ffc57600080fd5b5056fea26469706673582212207d8bf28fee7c6ef964b7d0dbc3abda10eb6013cd240d922f69adf292fd41434564736f6c63430008000033",
  "linkReferences": {},
  "deployedLinkReferences": {}
}